:1000000097F101009381010017F500001305C5FF6A
:1000100017060400130606FF3306A64093050000EA
:10002000EF001072172500001305853B63080500DB
:1000300017350000130545C5EF20403AEF20801C1E
:10004000032501009305410013060000EF0040085E
:100050006F10800297F7000083C707FB63960704C1
:1000600093070000638A0702130101FF17350000A0
:10007000130585ED2326110097000000E70000001E
:100080008320C1009307100017F70000230EF7F636
:1000900013010101678000009307100017F70000AB
:1000A0002304F7F6678000006780000093070000D4
:1000B000638E070097F50000938545F5173500001E
:1000C000130585E817030000670000006780000043
:1000D000130101FD23261102232481022322910210
:1000E00013040103EF00400A2326A4FE9305100029
:1000F00013054000EF00903893040500930530008D
:1001000013054000EF00903713070500930704FE26
:10011000130607009385040013850700EF00501DA8
:10012000832704FE2328F4FC832744FE232AF4FCBF
:10013000832784FE232CF4FC930704FD938507009A
:100140000325C4FEEF0040450325C4FEEF00C06A4E
:100150009305300013054000EF005032930705006F
:100160000327C4FE93972700B307F70083A7070070
:10017000138507008320C1020324810283244102E6
:100180001301010367800000130101FE232E1100FB
:10019000232C81001304010213058010EF00D0709E
:1001A000930705002324F4FE832784FE1307100021
:1001B0002380E710EF00500513070500832784FE16
:1001C00023A2E710232604FE6F004002032784FECB
:1001D0008327C4FE93972700B307F70023A00700E7
:1001E0008327C4FE938717002326F4FE0327C4FE4B
:1001F0009307F003E3DCE7FC832784FE130740004A
:1002000023A0E700832784FE1307300023A2E70022
:10021000832784FE1307200023A4E700832784FE9E
:100220001307500023A6E700832784FE130760000E
:1002300023A8E700832784FE1307200023AAE700F2
:10024000832784FE1307300023ACE700832784FE56
:100250001307400023AEE700832784FE1307100036
:1002600023A0E702832784FE1307100023A2E702DE
:10027000832784FE1307100023A4E702832784FE4C
:100280001307100023A6E702832784FE130710003C
:1002900023A8E702832784FE1307100023AAE7029E
:1002A000832784FE1307100023ACE702832784FE14
:1002B0001307100023AEE702832784FE1307100103
:1002C00023A0E70C832784FE1307100123A2E70C69
:1002D000832784FE1307100123A4E70C832784FEE1
:1002E0001307100123A6E70C832784FE13071001D0
:1002F00023A8E70C832784FE1307100123AAE70C29
:10030000832784FE1307100123ACE70C832784FEA8
:100310001307100123AEE70C832784FE1307400167
:1003200023A0E70E832784FE1307300123A2E70EE4
:10033000832784FE1307200123A4E70E832784FE6E
:100340001307500123A6E70E832784FE13076001DD
:1003500023A8E70E832784FE1307200123AAE70EB4
:10036000832784FE1307300123ACE70E832784FE26
:100370001307400123AEE70E832784FE1385070091
:100380008320C10103248101130101026780000061
:10039000130101FD2326110223248102130401030A
:1003A000232EA4FC8327C4FD130710002380E7102D
:1003B000232604FE6F0040020327C4FD8327C4FEEA
:1003C00093972700B307F70023A007008327C4FEF5
:1003D000938717002326F4FE0327C4FE9307F00338
:1003E000E3DCE7FC8327C4FD83A7471013850700E0
:1003F000EF00406AEF004061130705008327C4FD4A
:1004000023A2E7108327C4FD1307400023A0E700C1
:100410008327C4FD1307300023A2E7008327C4FD10
:100420001307200023A4E7008327C4FD130750000F
:1004300023A6E7008327C4FD1307600023A8E70075
:100440008327C4FD1307200023AAE7008327C4FDE8
:100450001307300023ACE7008327C4FD13074000D7
:1004600023AEE7008327C4FD1307100023A0E70293
:100470008327C4FD1307100023A2E7028327C4FDCE
:100480001307100023A4E7028327C4FD13071000FD
:1004900023A6E7028327C4FD1307100023A8E70261
:1004A0008327C4FD1307100023AAE7028327C4FD96
:1004B0001307100023ACE7028327C4FD13071000C5
:1004C00023AEE7028327C4FD1307100123A0E70C26
:1004D0008327C4FD1307100123A2E70C8327C4FD63
:1004E0001307100123A4E70C8327C4FD1307100191
:1004F00023A6E70C8327C4FD1307100123A8E70CEC
:100500008327C4FD1307100123AAE70C8327C4FD2A
:100510001307100123ACE70C8327C4FD1307100158
:1005200023AEE70C8327C4FD1307400123A0E70E89
:100530008327C4FD1307300123A2E70E8327C4FDE0
:100540001307200123A4E70E8327C4FD13075001DE
:1005500023A6E70E8327C4FD1307600123A8E70E37
:100560008327C4FD1307200123AAE70E8327C4FDB8
:100570001307300123ACE70E8327C4FD13074001A6
:1005800023AEE70E130000008320C1020324810282
:100590001301010367800000130101FC232E1102E7
:1005A000232C8102232A9102130401042326A4FC94
:1005B0009384050083A704000327C4FC93972700B6
:1005C000B307F70083A707002326F4FE8327C4FEA2
:1005D000638207028327C4FE93F7070193B71700CE
:1005E00093F7F70F138707008327C4FC83C707100F
:1005F0006306F700930700006F00C01183A7440053
:100600000327C4FC93972700B307F70083A70700CD
:100610002324F4FE8327C4FC83A7471083A5070087
:1006200003A6470083A6870003A7C70083A7070187
:10063000232AB4FC232CC4FC232ED4FC2320E4FE68
:100640002322F4FE832784FE2320F4FE8327C4FCA8
:1006500083A747102322F4FE832784FE63900702BA
:100660008327C4FE13F7F700930710006308F70011
:10067000832744FD93871700232AF4FC83A7840073
:10068000638E070203A784008327C4FC83C7071077
:1006900063860700930700006F0080009307000146
:1006A00003A6440033E7E7008326C4FC9317260023
:1006B000B387F60023A0E7006F00C00183A74400C2
:1006C0000327C4FC93972700B307F7000327C4FE52
:1006D00023A0E70083A704000327C4FC9397270007
:1006E000B307F70023A007008327C4FC83C70710C4
:1006F000B337F00093F7F70F93C7170093F7F70F8F
:1007000093F7170013F7F70F8327C4FC2380E71034
:1007100093071000138507008320C103032481037E
:10072000832441031301010467800000130101FDCC
:1007300023261102232481022322910213040103A0
:10074000232EA4FC9384050083A744000327C4FD43
:1007500093972700B307F70083A707002326F4FE2B
:1007600083A704000327C4FD93972700B307F7006E
:100770000327C4FE23A0E7008327C4FD83A74710F7
:100780002324F4FE832784FE03A707018327C4FDE7
:1007900023A2E71083A74400032784FE0327C70092
:1007A0008326C4FD93972700B387F60023A0E700B4
:1007B0008327C4FD83C70710B337F00093F7F70F03
:1007C00093C7170093F7F70F93F7170013F7F70F77
:1007D0008327C4FD2380E710032584FEEF00D00D9E
:1007E000130000008320C1020324810283244102FC
:1007F0001301010367800000130101FD232611028C
:100800002324810213040103232EA4FC9307700008
:100810002326F4FE6F00800A930770002324F4FE61
:100820006F0000021305B002EF0040571305D0021D
:10083000EF00C056832784FE9387F7FF2324F4FE3E
:10084000832784FEE3D007FE1305B002EF000055B6
:10085000EF00405A930770002322F4FE6F0000045B
:100860001305C007EF0080538327C4FE139737009A
:10087000832744FEB307F7000327C4FD939727009F
:10088000B307F70083A7070013850700EF004008B0
:10089000832744FE9387F7FF2322F4FE832744FE39
:1008A000E3D007FC1305C007EF00404FEF00805472
:1008B0008327C4FE9387F7FF2326F4FE8327C4FE15
:1008C000E3DC07F4930770002320F4FE6F000002BE
:1008D0001305B002EF00804C1305D002EF00004C6E
:1008E000832704FE9387F7FF2320F4FE832704FE6B
:1008F000E3D007FE1305B002EF00404A13000000EA
:100900008320C102032481021301010367800000D8
:10091000130101FD23261102232481021304010384
:10092000232EA4FC0327C4FD9307600163E8E70AB4
:100930008327C4FD13972700B71700009387C701CB
:10094000B307F70083A70700678007009307000538
:10095000A307F4FE6F0040099307E004A307F4FE29
:100960006F00800893072004A307F4FE6F00C00700
:1009700093072005A307F4FE6F00000793071005F7
:10098000A307F4FE6F0040069307B004A307F4FE2C
:100990006F00800593070007A307F4FE6F00C004F3
:1009A0009307E006A307F4FE6F00000493072006F8
:1009B000A307F4FE6F00400393072007A307F4FE8C
:1009C0006F00800293071007A307F4FE6F00C001B9
:1009D0009307B006A307F4FE6F000001930700021F
:1009E000A307F4FE130000008347F4FE13850700FD
:1009F000EF00C03A130000008320C10203248102EB
:100A00001301010367800000130101FE232E110072
:100A1000232C81001304010213054001EF00C0687C
:100A2000930705002326F4FE8327C4FE23A40700B2
:100A30008327C4FE1307F0FF23A2E7008327C4FE29
:100A400023A007008327C4FE23A607008327C4FE34
:100A5000138507008320C1010324810113010102D2
:100A600067800000130101FE232E1100232C81005A
:100A7000130401022326A4FE8327C4FE83A70701D3
:100A8000138507008320C1010324810113010102A2
:100A900067800000130101FD232611022324810237
:100AA00013040103232EA4FC0325C4FDEFF09FFBD8
:100AB0002326A4FE0325C4FDEF0000608327C4FEA7
:100AC000232EF4FC0325C4FDEFF0DFF92326A4FE5A
:100AD0008327C4FEE39007FE13000000130000000C
:100AE0008320C102032481021301010367800000F7
:100AF000130101FD232611022324810213040103A3
:100B0000232EA4FC232CB4FC232AC4FC832784FDBD
:100B10002322F4FE832744FD2324F4FE232604FE2F
:100B20008327C4FD032744FE23A0E700032784FE98
:100B300023A2E7000327C4FE23A4E7000325C4FD86
:100B40008320C10203248102130101036780000096
:100B5000130101FE232E1100232C81001304010236
:100B60002326A4FE0327C4FEB7170000B307F7002F
:100B700023A007C0130000008320C10103248101CA
:100B80001301010267800000130101FC232E1102F2
:100B9000232C8102130401042326A4FC2324B4FC87
:100BA000232604FE6F00400B0327C4FC8327C4FEEA
:100BB00093972700B307F70083A707002324F4FEC9
:100BC000832784FE13F7F700930710006310F708DC
:100BD000832784FE93F70701639A07068327C4FEE1
:100BE000138787009307C4FD130607008325C4FEFF
:100BF00013850700EFF0DFEF032784FCB717000031
:100C0000B307F70003A707C093061700032684FC69
:100C1000B7170000B307F60023A0D7C0832684FCD3
:100C20009307070093971700B387E7009397270070
:100C3000B387F6000327C4FD23A0E700032704FEC3
:100C400023A2E700032744FE23A4E7008327C4FE72
:100C5000938717002326F4FE0327C4FE9307F003AF
:100C6000E3D4E7F413000000130000008320C10365
:100C7000032481031301010467800000130101FEB6
:100C8000232E1100232C8100130401022326A4FE2D
:100C90002324B4FE8327C4FE13973700832784FEE2
:100CA000B307F700138507008320C10103248101E6
:100CB0001301010267800000130101FE232E1100C1
:100CC000232C8100130401022326A4FE8327C4FEE3
:100CD00013D7F74113777700B307F70093D737405F
:100CE000138507008320C101032481011301010240
:100CF00067800000130101FE232E1100232C8100C8
:100D0000130401022326A4FE0327C4FE9357F741D0
:100D100093D7D7013307F70013777700B307F7406E
:100D2000138507008320C1010324810113010102FF
:100D300067800000130101FD232611022324810294
:100D40001304010393070500232CB4FCA30FF4FC48
:100D50008347F4FD2326F4FE8327C4FE032784FD86
:100D6000B7020010B382E20013830700B7F3FF005D
:100D700013138301330373001303F37F1303F37F10
:100D80001303130023A06200130000008320C1029C
:100D9000032481021301010367800000130101FE97
:100DA000232E1100232C8100130401029307050058
:100DB000A307F4FEB7F7000003A707008347F4FE7C
:100DC0009305070013850700EFF0DFF6B7F7000083
:100DD00083A7070013871700B7F7000023A0E700D9
:100DE000130000008320C1010324810113010102CB
:100DF00067800000130101FF2326110023248100D6
:100E00002322910013040101B7F7000083A4070017
:100E1000B7F7000083A707009305000513850700B7
:100E2000EF00000F930705003387F440B7F7000089
:100E300023A0E700B7F7000083A707001387070583
:100E4000B7F7000023A0E700130000008320C100D3
:100E50000324810083244100130101016780000005
:100E6000130101FF23261100232481001304010133
:100E7000B7F7000023A00700130000008320C10083
:100E8000032481001301010167800000634005060F
:100E900063C6050613860500930505001305F0FFDC
:100EA000630C060293061000637AB6006358C00014
:100EB0001316160093961600E36AB6FE130500009B
:100EC00063E6C500B385C5403365D50093D61600EB
:100ED00013561600E39606FE67800000938200001A
:100EE000EFF05FFB13850500678002003305A0402B
:100EF0006348B000B305B0406FF0DFF9B305B04010
:100F000093820000EFF01FF93305A04067800200D4
:100F10009382000063CA0500634C0500EFF09FF761
:100F20001385050067800200B305B040E35805FE55
:100F30003305A040EFF01FF63305B0406780020094
:100F40001303F00013070500637EC3029377F700D5
:100F50006390070A63920508937606FF1376F600FE
:100F6000B386E6002320B7002322B7002324B7006E
:100F70002326B70013070701E366D7FE63140600B4
:100F800067800000B306C3409396260097020000D6
:100F9000B38656006780C6002307B700A306B700D4
:100FA0002306B700A305B7002305B700A304B700C5
:100FB0002304B700A303B7002303B700A302B700BD
:100FC0002302B700A301B7002301B700A300B700B5
:100FD0002300B7006780000093F5F50F9396850016
:100FE000B3E5D50093960501B3E5D5006FF0DFF6C4
:100FF0009396270097020000B38656009382000064
:10100000E78006FA93800200938707FF3307F740D3
:101010003306F600E378C3F66FF0DFF3DC09000077
:101020004C09000064090000580900007009000024
:101030007C09000088090000DC090000DC090000D0
:10104000DC090000DC090000DC090000DC0900000C
:10105000DC090000DC090000DC090000DC090000FC
:1010600094090000AC090000A0090000B8090000C4
:08107000C4090000D0090000D2
:10107800130101FF9305000023248100232611009A
:1010880013040500EF10402197E7000083A7C70F5E
:1010980063840700E780070013050400EF109051F0
:1010A8009305050017E500000325856A6F004001D8
:1010B8009305050017E50000032585696F100047B3
:1010C800130101FD23202103232611022324810279
:1010D80023229102232E31019387B5001307600163
:1010E800130905006360F7089304000163E4B42062
:1010F800EF00C07F930780019305200097E9000067
:101108009389C923B387F90003A44700138787FF8E
:101118006306E446832744008326C400032684002C
:1011280093F7C7FFB307F40003A747002326D600A9
:1011380023A4C600136717001305090023A2E700BC
:10114800EF00007B8320C102130584000324810281
:1011580083244102032901028329C10113010103E8
:101168006780000093F487FF63C6071863E4B41828
:10117800EF00C0779307701F63FC975093D79400D4
:10118800638E0718130740006362F74693D764001D
:1011980093859703138887031396350097E9000012
:1011A8009389C9193386C90003244600130686FFAC
:1011B800630886021305F0006F0040018326C4000F
:1011C800635C0736630ED600138406008327440049
:1011D80093F7C7FF33879740E352E5FE930508006E
:1011E80003A4090197E800009388C8156306142D25
:1011F800832744009306F00093F7C7FF338797408F
:1012080063CEE64823AA190123A8190163520746A9
:101218001307F01F03A54900636AF73613F787FF22
:10122800130787003387E9008326070013D6570082
:1012380093071000B397C7003365F500930787FF3E
:101248002324D4002326F40023A2A9002320870006
:1012580023A6860093D72540130610003316F60000
:101268006366C50CB377A6006394070213161600CD
:1012780093F5C5FFB377A60093854500639A0700E9
:1012880013161600B377A60093854500E38A07FE78
:101298001308F00013933500338369001305030026
:1012A8008327C500138E05006304F53603A747009E
:1012B8001384070083A7C7001377C7FFB3069740B7
:1012C8006344D836E3C206FE3307E40083264700AA
:1012D800032684001305090093E616002322D7008D
:1012E8002326F60023A4C700EF00806013058400BE
:1012F8006F0000019307C0002320F90013050000C8
:101308008320C102032481028324410203290102AC
:101318008329C1011301010367800000130600201F
:10132800930500041308F0036FF05FE703A4890036
:10133800232861018327440013FBC7FF63689B00D0
:1013480033079B409307F00063C6E71A23229101F5
:1013580097EC0000938C0CFE232A510103A70C0084
:1013680097EA000083AA8ACE232C41012326710123
:101378009307F0FF330A6401B38A54016306F73E0A
:10138800B71700009387F700B38AFA00B7F7FFFF93
:10139800B3FAFA0093850A0013050900EF005056C6
:1013A8009307F0FF930B05006304F548232481019C
:1013B8006368451117EC0000130C4CC683250C001C
:1013C800B385BA002320BC00138705006308AA462A
:1013D80083A60C009307F0FF6380F648B3874B4160
:1013E800B387E7002320FC0093FC7B00638E0C3856
:1013F800B38B9B41B7150000938B8B0093858500B9
:10140800B38A5B01B3859541B385554193954501F1
:1014180013DA450193050A0013050900EF00504E41
:101428009307F0FF630AF54633057541B30A450192
:1014380003270C0023A4790193E71A00B305EA00F7
:1014480023A2FB002320BC00630E34039306F000A4
:1014580063F266370327440093074BFF93F787FF30
:10146800137717003367F7002322E40013065000B0
:101478003307F4002322C7002324C70063EAF62CAD
:1014880083A74B0017E70000130707BC8326070054
:1014980063F4B6002320B70017E70000130787BAE4
:1014A8008326070063F4B6002320B700032C8100CD
:1014B80013840B006F00C00103A549006FF09FD98A
:1014C800630C343503A48900032C8100832744006E
:1014D80093F7C7FF3387974063E4972E9307F0008D
:1014E80063D0E72E032A8101832A4101832BC1009F
:1014F800832C410093E714002322F400B3049400E2
:1015080023A49900136717001305090023A2E40018
:10151800EF00003E8320C1021305840003248102EA
:10152800032B010183244102032901028329C101FC
:10153800130101036780000003268400B307F40049
:1015480003A747002326D60023A4C6001367170065
:101558001305090023A2E700EF0080398320C102A8
:101568001305840003248102832441020329010214
:101578008329C101130101036780000003A4C70088
:1015880093852500E38E87C46FF0DFB813D79700E3
:101598009306400063F2E6149306400163E2E624F2
:1015A8001306C705131636009306B7053386C90018
:1015B80003270600130686FF6318E6006F00401B2A
:1015C800032787006308E6008326470093F6C6FFD3
:1015D800E3E8D7FE0326C7002326C4002324E4003B
:1015E80023248600232687006FF0DFC613074001F7
:1015F800637EF70E130740056362F72093D7C40094
:101608009385F7061388E706139635006FF01FB920
:10161800130E1E0093773E00130585006386070EA0
:101628008327C5006FF05FC80326840093E5140084
:101638002322B4002326F60023A4C700B304940091
:1016480023AA990023A8990093E716003307E4001A
:1016580023A6140123A4140123A2F40013050900EE
:101668002320D700EF00C028130584006FF05FC95E
:10167800B307F40003A74700130509001367170011
:1016880023A2E700EF00C026130584006FF05FC7B0
:1016980093D53400938784006FF05FA693E6140017
:1016A8002322D400B304940023AA990023A8990004
:1016B80093661700B307F40023A6140123A41401AA
:1016C80023A2D4001305090023A0E700EF0040225D
:1016D800130584006FF0DFC213D767001306970362
:1016E80013163600930687036FF05FEC9385C705E2
:1016F8001388B705139635006FF05FAA8327830018
:101708009385F5FF6390671E93F73500130383FFF6
:10171800E39607FE03A749009347F6FFB3F7E700F0
:1017280023A2F90013161600E3E2C7C0E30006C0BF
:101738003377F600631A0700131616003377F6009E
:10174800130E4E00E30A07FE93050E006FF09FB4D8
:101758009305840013050900EF00505D83250C00F4
:1017680083AB89006FF0DFD1938A0A016FF09FC2C3
:1017780093D6264093071000B397D7003365F5003A
:1017880023A2A9006FF05FE5B3855B01B305B04004
:101798009395450113DA450193050A0013050900DD
:1017A800EF0010169307F0FFE310F5C8130A0000C6
:1017B8006FF01FC8032C81009307100023A2FB00C1
:1017C80013050900EF00C012032A8101832A410191
:1017D800032B0101832BC100832C41006FF01FB242
:1017E8009306400563EEE60613D7C7001306F7060F
:1017F800131636009306E7066FF05FDB13074015F4
:10180800636EF70693D7F4009385870713887707E5
:10181800139635006FF09F9817EC0000130C0C809E
:1018280003270C003387EA002320EC006FF05FBA2F
:1018380003A48900832744006FF09FC993174501CB
:10184800E39807B883AB8900B3075B0193E71700F8
:1018580023A2FB006FF01FC323A07C016FF0DFB849
:101868009306401563E4E60413D7F70013068707C9
:1018780013163600930677076FF05FD313074055AA
:101888006364F70493D724019385D7071388C707A0
:10189800139635006FF09F90938C8CFFB38A9A0152
:1018A800B38A7A41130A00006FF09FB89306405537
:1018B80063E4E60213D727011306D7071316360089
:1018C8009306C7076FF09FCE1306803F9305F00776
:1018D8001308E0076FF09F8C1306803F9306E0071C
:0C18E8006FF0DFCC83A749006FF0DFE356
:0418F4006780000009
:0418F8006780000005
:0818FC001305000067800000E5
:1019040017E60000130646E497150000938505F2D8
:0C19140017E50000130545E46F00803764
:1019200083254500130101FF232481002326110094
:1019300097D7000093874772130405006384F5006E
:10194000EF00D06E8325840097D7000093874777F8
:101950006386F50013050400EF00506D8325C40075
:1019600097D700009387477C638CF500130504002C
:10197000032481008320C100130101016F00106B5B
:101980008320C1000324810013010101678000004E
:08199000130500006780000050
:10199800130101FE232E1100232C8100232A91001C
:1019A80017D400001304C46A232821012326310117
:1019B8002324410117070000130787F49307400009
:1019C800130680009305000017D500001305056E67
:1019D80097D6000023AAE67A2326F40023200400E1
:1019E80023220400232404002322040623280400BD
:1019F800232A0400232C0400EFF00FD4B7070100BA
:101A0800170A0000130A0A34970900009389C93994
:101A1800170900001309C9419704000093848447FB
:101A280093879700130680009305000017D50000E0
:101A38001305456E232AF406232044032322340386
:101A48002324240323269402232E8400232404061B
:101A580023260406232804062326040C232C040624
:101A6800232E040623200408EFF00FCDB707020049
:101A78009387270117D70000130707641306800010
:101A88009305000017D500001305456F232444096A
:101A98002326340923282409232A9408232EF40C06
:101AA8002328040C232A040C232C040C232A0412B4
:101AB8002320040E2322040E2324040E2322E408E8
:101AC800EFF08FC797D70000938787652328440FC7
:101AD800232A340F232C240F232E940E8320C10194
:101AE8002326F40E032481018324410103290101E3
:101AF8008329C100032A81001301010267800000C5
:101B080097D7000083A74768130101FE23263101F8
:101B1800232E1100232C8100232A91002328210140
:101B2800930905006388070E17E90000130989C1A6
:101B38009304F0FF83274900032489009387F7FF64
:101B480063D807006F00000813048406638C9706A7
:101B58000317C4009387F7FFE31807FEB707FFFFD3
:101B6800938717002322040623200400232404005B
:101B78002322040023280400232A0400232C040021
:101B88002326F40013068000930500001305C405FE
:101B9800EFF08FBA23280402232A04022322040424
:101BA800232404048320C1011305040003248101B4
:101BB80083244101032901018329C1001301010282
:101BC8006780000003240900630604001309040069
:101BD8006FF05FF69305C01A13850900EFF04FCE3A
:101BE80013040500630C0502930740001305C500A4
:101BF800232004002322F4002324A4001306001A3F
:101C080093050000EFF04FB3232089001309040067
:101C18006FF05FF2EFF0DFD76FF01FF123200900BC
:0C1C28009307C00023A0F9006FF0DFF765
:101C340083274503638407006780000097D700006B
:101C440083A7C75417070000130787CD232AE5028B
:081C5400E39407FE6FF01FD4BA
:041C5C00678000009D
:041C60006780000099
:101C640017E60000130646AE97050000938505C9E4
:081C7400130500006F00C00120
:101C7C0017E600001306C6AC970500009385C5D087
:081C8C00130500006F00400089
:101C9400130101FD23202103232E3101232C4101B3
:101CA400232A5101232861012326710123261102CD
:101CB4002324810223229102130B0500938B050038
:101CC400930A0600130A0000930910001309F0FF99
:101CD40083A44A0003A48A009384F4FF63C8040223
:101CE4008357C40063FEF9008317E40093050400DE
:101CF40013050B0063862701E7800B00336AAA00F3
:101D04009384F4FF13048406E39C24FD83AA0A004D
:101D1400E3900AFC8320C10203248102832441024C
:101D2400032901028329C101832A4101032B0101F3
:101D3400832BC10013050A00032A81011301010347
:041D440067800000B4
:101D4800130101FF23248100138405008395E50016
:101D580023261100EF008032634005028327040523
:101D68008320C100B387A7002328F404032481003B
:101D780013010101678000008357C40037F7FFFF94
:101D88001307F7FFB3F7E7008320C1002316F40019
:0C1D98000324810013010101678000009A
:081DA400130500006780000038
:101DAC008397C500130101FE232C8100232A910087
:101DBC002328210123263101232E110013F70710AC
:101DCC00138405001309060093890600930405008B
:101DDC006310070437F7FFFF1307F7FFB3F7E700AC
:101DEC008315E4002316F400032481018320C10130
:101DFC0093860900130609008329C10003290101F8
:101E0C001385040083244101130101026F00803605
:101E1C008395E5009306200013060000EF00801D5B
:081E2C008317C4006FF01FFBD7
:101E3400130101FF23248100138405008395E50029
:101E440023261100EF00801B1307F0FF8317C40043
:101E54006302E50237170000B3E7E7008320C100FF
:101E64002328A4042316F400032481001301010190
:101E74006780000037F7FFFF1307F7FFB3F7E700AA
:101E84008320C1002316F4000324810013010101FF
:041E94006780000063
:081E98008395E5006F00400096
:101EA000130101FF2324810013040500138505009D
:101EB00097D7000023A0072E23261100EF00D06B38
:101EC0009307F0FF630AF5008320C100032481001B
:101ED00013010101678000002322910097D40000C4
:101EE0009384442B83A70400638E07008320C100E2
:101EF0002320F40003248100832441001301010105
:101F0000678000008320C1000324810083244100F6
:081F10001301010167800000CC
:101F180097E7000083A7C783638EA70C8325450432
:101F2800130101FE232A9100232E1100232C810086
:101F38009304050063880504232821012326310121
:101F48001309000093090008B387250103A40700BB
:101F5800630E0400930504000324040013850400A1
:101F6800EF00C05CE31804FE83A54404130949008C
:101F7800E31C39FD13850400EF00405B03290101D0
:101F88008329C10083A584036386050013850400A3
:101F9800EF00C05903A40404630C04009305040073
:101FA8000324040013850400EF004058E31804FEDE
:101FB80083A5C4046386050013850400EF00005759
:101FC80083A74403638E0700032481018320C10192
:101FD800138504008324410113010102678007006F
:101FE8008320C101032481018324410113010102DB
:081FF800678000006780000013
:10200000130101FF138705002324810093050600B7
:1020100013040500138606001305070097D7000078
:1020200023AA071623261100EF00505C9307F0FF48
:10203000630AF5008320C10003248100130101011C
:10204000678000002322910097D4000093848414B9
:1020500083A70400638E07008320C1002320F400BF
:1020600003248100832441001301010167800000E3
:102070008320C10003248100832441001301010156
:042080006780000075
:10208400130101FF13870500232481009305060033
:1020940013040500138606001305070097D70000F4
:1020A40023A8070E23261100EF0050589307F0FFD2
:1020B400630AF5008320C100032481001301010198
:1020C400678000002322910097D400009384440C7D
:1020D40083A70400638E07008320C1002320F4003B
:1020E400032481008324410013010101678000005F
:1020F4008320C100032481008324410013010101D2
:0421040067800000F0
:10210800130101FF23248100130405001385050032
:1021180097D7000023AC070623261100EF001055BF
:102128009307F0FF630AF5008320C10003248100B0
:1021380013010101678000002322910097D4000059
:102148009384C40483A70400638E07008320C1001E
:102158002320F4000324810083244100130101019A
:10216800678000008320C10003248100832441008C
:08217800130101016780000062
:10218000130101FF13870500232481009305060036
:1021900013040500138606001305070097D70000F7
:1021A00023AA07FE23261100EF00D0549307F0FF67
:1021B000630AF5008320C10003248100130101019B
:1021C000678000002322910097D40000938484FC50
:1021D00083A70400638E07008320C1002320F4003E
:1021E0000324810083244100130101016780000062
:1021F0008320C100032481008324410013010101D5
:0422000067800000F3
:10220400130101FF232481002320210193070000EF
:1022140013040000232611002322910033898740F0
:102224006380870213592940930400008327040024
:102234009384140013044400E7800700E3E824FFB8
:102244009307000013040000338987401359294081
:10225400638E870093040000832704009384140092
:1022640013044400E7800700E3E824FF8320C1004F
:102274000324810083244100032901001301010187
:04228400678000006F
:102288009307000063880700171500001305459F92
:082298006F0040146780000094
:1022A000130101FD232C410117DA0000130ACAEEC5
:1022B0002320210303290A0023261102630C0906A7
:1022C000232E3101232A5101232861012326710184
:1022D000232481022322910223248101130B050070
:1022E000938B05009309F0FF930A100083244900A3
:1022F0001384F4FF6342040293942400B30499000E
:1023000063840B0483A74410638077051304F4FFF0
:102310009384C4FFE31834FF032481028324410221
:102320008329C101832A4101032B0101832BC100B1
:10233000032C81008320C10203290102032A8101A9
:1023400013010103678000008327490083A644002E
:102350009387F7FF638A870623A204006386060239
:102360008327891833978A00032C4900B377F70035
:1023700063940702E78006000327490083270A00C9
:10238000631E8703639C27031304F4FF9384C4FF35
:10239000E31834F76FF05FF88327C91883A5440862
:1023A0003377F7006316070213050B00E78006007A
:1023B0000327490083270A00E30687FDE38E07F41D
:1023C000138907006FF09FF2232289006FF01FF935
:0C23D00013850500E78006006FF01FFA7F
:1023DC00930505009306000013060000130500008A
:0423EC006F00D00EA0
:1023F000130101FE232C8100232A910023282101AF
:10240000232631012324410193890500232E110045
:102410001309050017DA0000130ACAF2EFF08FCD96
:1024200083278A00371400001304F4FE83A44700B6
:10243000B717000093F4C4FF33848400330434419D
:102440001354C4001304F4FF1314C400634EF400C7
:102450009305000013050900EFF01FCB83278A00C6
:10246000B38797006308F50213050900EFF0CFC8A2
:102470008320C10103248101832441010329010137
:102480008329C100032A8100130500001301010202
:1024900067800000B305804013050900EFF0DFC638
:1024A0009307F0FF630AF50417D70000130787B7F7
:1024B00083268A0083270700B384844093E41400B2
:1024C00013050900B387874023A296002320F70055
:1024D000EFF08FC28320C1010324810183244101D5
:1024E000032901018329C100032A8100130510007B
:1024F0001301010267800000930500001305090025
:10250000EFF09FC003278A009306F000B307E54071
:10251000E3DCF6F497D6000083A646E293E71700C3
:102520002322F7003305D54097D7000023ACA7AE90
:042530006FF09FF3B6
:1025340063860512130101FF2324810023229100E5
:10254400138405009304050023261100EFF04FBA0D
:102554008325C4FF130784FF17D80000130848DE3F
:1025640093F7E5FF3306F70083264600032588002A
:1025740093F8150093F6C6FF630CC5182322D60002
:102584003305D6000325450013751500639C080820
:10259400032384FF97D80000938808DB3307674040
:1025A40083258700B3876700638E15130323C70051
:1025B40023A665002324B3006304051A93E61700D9
:1025C4002322D7002320F6009306F01F63E4F60AC3
:1025D40093F687FF9386860083254800B306D800C8
:1025E40003A6060013D5570093071000B397A7005E
:1025F400B3E7B700938586FF2324C7002326B700DB
:102604002322F80023A0E6002326E6000324810009
:102614008320C100138504008324410013010101B8
:102624006FF04FAD631E0502B387D70097D8000043
:10263400938888D18326860013E51700B305F70035
:10264400638616170326C60023A6C6002324D600D5
:102654002322A70023A0F5006FF01FF76780000076
:1026640093E51500232EB4FE2320F6009306F01FF5
:10267400E3F0F6F693D69700130640006366D60E91
:1026840093D6670093859603939535001386860346
:10269400B305B80083A60500938585FF6398D5002C
:1026A4006F00801283A686006388D50003A64600C7
:1026B4001376C6FFE3E8C7FE83A5C6002326B7004A
:1026C4002324D700032481008320C10023A4E50030
:1026D400138504008324410023A6E60013010101AD
:1026E4006FF04FA16314050A8325C60003268600F4
:1026F400B386F60093E716002326B60023A4C5008C
:102704002322F7003307D7002320D7006FF01FF0F0
:10271400B386D70063900802832584FF3307B7404C
:102724008327C70003268700B386B6002326F60056
:1027340023A4C70013E6160097D7000083A707C099
:102744002322C7002324E800E3E2F6EC97D5000037
:1027540083A5059013850400EFF05FC96FF01FEBAC
:10276400B387D7006FF01FED130640016378D602DC
:10277400130640056368D60693D6C7009385F6060C
:10278400939535001386E6066FF09FF093E61700E5
:102794002322D7002320F6006FF05FE79385C60558
:1027A400939535001386B6056FF09FEE232AE80053
:1027B4002328E80023261701232417012322A70036
:1027C40023A0F5006FF09FE403254800135626402C
:1027D40093071000B397C700B3E7A7002322F800BC
:1027E4006FF0DFED13064015636CD60093D6F70047
:1027F4009385860793953500138676076FF05FE916
:1028040013064055636CD60093D627019385D607EB
:10281400939535001386C6076FF09FE79305803FB5
:082824001306E0076FF0DFE688
:10282C00130101FF232611002320210163880502D7
:10283C0023248100232291001384050093040500B6
:10284C006306050083274503638C070C8317C400BC
:10285C006392070203248100832441008320C1007A
:10286C0013090000130509000329010013010101DC
:10287C00678000009305040013850400EF00C00B73
:10288C008327C40213090500638A07008325C4014A
:10289C0013850400E7800700634405068357C400D2
:1028AC0093F707086396070683250403638C0500DA
:1028BC00930704046386F50013850400EFF0DFC66C
:1028CC00232804028325440463880500138504002F
:1028DC00EFF09FC523220404EFF08FB723160400FA
:1028EC00EFF04FB78320C100032481008324410003
:1028FC001305090003290100130101016780000081
:10290C008357C4001309F0FF93F70708E38E07F809
:10291C008325040113850400EFF01FC16FF0DFF86D
:08292C00EFF08FB06FF09FF295
:102934009305050017D500000325C5E16FF0DFEE10
:102944000397C500130101FE232C810023263101C6
:10295400232E110093778700138405009309050043
:1029640063900712B71700009387078083A645007A
:10297400B367F7002396F500635AD018032884023E
:102984006304080E232A91009316370183A40900D7
:1029940023A0090063C806188325C4011306000098
:1029A4009306100013850900E70008009307F0FF61
:1029B40013060500630AF51A8317C400032884026A
:1029C40093F74700638E070003274400832704031B
:1029D4003306E640638607008327C4033306F640C4
:1029E4008325C4019306000013850900E70008004D
:1029F4001307F0FF8317C400631AE51283A60900C6
:102A04001307D0016360D718370740201307170056
:102A14003357D700137717006306071603260401FC
:102A240037F7FFFF1307F77F33F7E7002316E400B8
:102A3400232204002320C4001397370163540700A2
:102A4400638806108325040323A09900638A051074
:102A5400930704046386F50013850900EFF05FAD66
:102A640083244101232804028320C101032481011A
:102A74008329C100130500001301010267800000CF
:102A84002328210103A90501630A0908232A9100C7
:102A940083A405001377370023A02501B3842441C0
:102AA400930700006314070083A745012324F4005F
:102AB400634890006F0040063309A900635E9004E8
:102AC400832744028325C401938604001306090066
:102AD40013850900E7800700B384A440E34EA0FCFB
:102AE4008317C4000329010193E707048320C1016C
:102AF4002316F40003248101832441018329C100A6
:102B04001305F0FF130101026780000083A6C503CB
:102B1400E346D0E66FF05FF5832441010329010108
:102B24006FF09FF4032604056FF09FE983260401E8
:102B340037F7FFFF1307F77F33F7E7002316E400A7
:102B4400232204002320D40013973701E35C07EE0B
:102B5400832504032328A40423A09900E39A05EE03
:102B6400832441016FF05FF083A70900E38607E443
:102B74001307D001638CE700130760016388E70043
:102B84008317C40093E707046FF05FF623A099004E
:082B9400832441016FF05FEDA5
:102B9C00130101FE232C8100232E110013040500C8
:102BAC006306050083274503638A07028397C500E4
:102BBC00639C07008320C1010324810113050000DD
:102BCC001301010267800000130504000324810136
:102BDC008320C101130101026FF01FD62326B1001F
:0C2BEC00EFF08F848325C1006FF05FFCC8
:102BF800630205069305050017D50000032545B5B2
:102C08006306050083274503638C07008397C50087
:102C18006396070013050000678000006FF01FD25D
:102C2800130101FE2326B1002324A100232E110045
:102C3800EFE0DFFF8325C100032581008397C500EE
:102C4800639807028320C1011305000013010102E4
:102C58006780000017D600001306C6AE970500006F
:102C6800938585F317D500001305C5AE6FF00F8265
:0C2C78008320C101130101026FF05FCC4A
:102C8400130101FF232481009307000013040000B3
:102C94003304F4402322910023261100935424404A
:102CA400638004021304C4FF3304F4008327040084
:102CB4009384F4FF1304C4FFE7800700E39804FE41
:102CC4008320C100032481008324410013010101F6
:042CD4006780000015
:102CD80017C700001307C74B83270700638C070437
:102CE80003A747001308F0016340E80813182700FA
:102CF80063060502338307012324C30883A88718C2
:102D0800130610003316E600B3E8C80023A4171909
:102D18002324D310930620006306D5021307170057
:102D280023A2E700B387070123A4B7001305000017
:102D38006780000097C700009387C7452320F700E6
:102D48006FF01FFA83A6C7181307170023A2E7001E
:102D5800B3E6C60023A6D718B387070123A4B70094
:102D680013050000678000001305F0FF678000006E
:102D7800130101FF232611002324810093089003E7
:102D88007300000013040500634C05008320C10094
:102D9800130504000324810013010101678000006A
:102DA80033048040EF00C018232085001304F0FF8F
:042DB8006FF0DFFDDC
:102DBC009308D00573000000634405006F00000009
:102DCC00130101FF232481001304050023261100A5
:102DDC0033048040EF008015232085006F00000035
:102DEC00130101FF23261100232481009308E00323
:102DFC007300000013040500634C05008320C10020
:102E0C0013050400032481001301010167800000F5
:102E1C0033048040EF008011232085001304F0FF61
:042E2C006FF0DFFD67
:102E3000130101FF23261100232481009308F003CE
:102E40007300000013040500634C05008320C100DB
:102E500013050400032481001301010167800000B1
:102E600033048040EF00400D232085001304F0FF61
:042E70006FF0DFFD23
:102E740097C600009386464B03A70600130101FF83
:102E84002326110093070500631007029308600DC1
:102E940013050000730000001306F0FF130705007C
:102EA400630AC50223A0A6003385E7009308600DDA
:102EB4007300000003A70600B387E700631CF50056
:102EC4008320C10023A0A6001305070013010101FC
:102ED40067800000EF0000068320C1009307C00054
:102EE4002320F5001305F0FF1301010167800000A2
:102EF400130101FF232611002324810093080004F9
:102F04007300000013040500634C05008320C10016
:102F140013050400032481001301010167800000EC
:102F240033048040EF000001232085001304F0FFE8
:042F34006FF0DFFD5E
:0C2F380017D500000325C581678000004C
:042F44000000000089
:10F000000000000000000000000000000000000000
:10F0100000000000000000000000000000000000F0
:04F32C0000000000DD
:04F330005400000085
:04F33400AC00000029
:04F33800FFFFFFFFD5
:04F33C0000000200CB
:10F34000000000000000000040F3000040F3000057
:10F3500048F3000048F3000050F3000050F30000B1
:10F3600058F3000058F3000060F3000060F3000061
:10F3700068F3000068F3000070F3000070F3000011
:10F3800078F3000078F3000080F3000080F30000C1
:10F3900088F3000088F3000090F3000090F3000071
:10F3A00098F3000098F30000A0F30000A0F3000021
:10F3B000A8F30000A8F30000B0F30000B0F30000D1
:10F3C000B8F30000B8F30000C0F30000C0F3000081
:10F3D000C8F30000C8F30000D0F30000D0F3000031
:10F3E000D8F30000D8F30000E0F30000E0F30000E1
:10F3F000E8F30000E8F30000F0F30000F0F3000091
:10F40000F8F30000F8F3000000F4000000F400003E
:10F4100008F4000008F4000010F4000010F40000EC
:10F4200018F4000018F4000020F4000020F400009C
:10F4300028F4000028F4000030F4000030F400004C
:10F4400038F4000038F4000040F4000040F40000FC
:10F4500048F4000048F4000050F4000050F40000AC
:10F4600058F4000058F4000060F4000060F400005C
:10F4700068F4000068F4000070F4000070F400000C
:10F4800078F4000078F4000080F4000080F40000BC
:10F4900088F4000088F4000090F4000090F400006C
:10F4A00098F4000098F40000A0F40000A0F400001C
:10F4B000A8F40000A8F40000B0F40000B0F40000CC
:10F4C000B8F40000B8F40000C0F40000C0F400007C
:10F4D000C8F40000C8F40000D0F40000D0F400002C
:10F4E000D8F40000D8F40000E0F40000E0F40000DC
:10F4F000E8F40000E8F40000F0F40000F0F400008C
:10F50000F8F40000F8F4000000F5000000F5000039
:10F5100008F5000008F5000010F5000010F50000E7
:10F5200018F5000018F5000020F5000020F5000097
:10F5300028F5000028F5000030F5000030F5000047
:10F5400038F5000038F5000040F5000040F50000F7
:10F5500048F5000048F5000050F5000050F50000A7
:10F5600058F5000058F5000060F5000060F5000057
:10F5700068F5000068F5000070F5000070F5000007
:10F5800078F5000078F5000080F5000080F50000B7
:10F5900088F5000088F5000090F5000090F5000067
:10F5A00098F5000098F50000A0F50000A0F5000017
:10F5B000A8F50000A8F50000B0F50000B0F50000C7
:10F5C000B8F50000B8F50000C0F50000C0F5000077
:10F5D000C8F50000C8F50000D0F50000D0F5000027
:10F5E000D8F50000D8F50000E0F50000E0F50000D7
:10F5F000E8F50000E8F50000F0F50000F0F5000087
:10F60000F8F50000F8F5000000F6000000F6000034
:10F6100008F6000008F6000010F6000010F60000E2
:10F6200018F6000018F6000020F6000020F6000092
:10F6300028F6000028F6000030F6000030F6000042
:10F6400038F6000038F6000040F6000040F60000F2
:10F6500048F6000048F6000050F6000050F60000A2
:10F6600058F6000058F6000060F6000060F6000052
:10F6700068F6000068F6000070F6000070F6000002
:10F6800078F6000078F6000080F6000080F60000B2
:10F6900088F6000088F6000090F6000090F6000062
:10F6A00098F6000098F60000A0F60000A0F6000012
:10F6B000A8F60000A8F60000B0F60000B0F60000C2
:10F6C000B8F60000B8F60000C0F60000C0F6000072
:10F6D000C8F60000C8F60000D0F60000D0F6000022
:10F6E000D8F60000D8F60000E0F60000E0F60000D2
:10F6F000E8F60000E8F60000F0F60000F0F6000082
:10F70000F8F60000F8F6000000F7000000F700002F
:10F7100008F7000008F7000010F7000010F70000DD
:10F7200018F7000018F7000020F7000020F700008D
:10F7300028F7000028F7000030F7000030F700003D
:08F7400038F7000038F7000063
:0CF74800000000000300000054F000006E
:04F7540058F7000062
:10F758000000000054F00000BCF0000024F100009C
:10F768000000000000000000000000000000000091
:10F778000000000000000000000000000000000081
:10F788000000000000000000000000000000000071
:10F798000000000000000000000000000000000061
:10F7A8000000000000000000000000000000000051
:10F7B8000000000000000000000000000000000041
:10F7C8000000000000000000000000000000000031
:10F7D8000000000000000000000000000000000021
:10F7E8000000000000000000010000000000000010
:10F7F8000E33CDAB34126DE6ECDE05000B000000D5
:10F8080000000000000000000000000000000000F0
:10F8180000000000000000000000000000000000E0
:10F8280000000000000000000000000000000000D0
:10F8380000000000000000000000000000000000C0
:10F8480000000000000000000000000000000000B0
:10F8580000000000000000000000000000000000A0
:10F868000000000000000000000000000000000090
:04F8780088220000E2
:00000001FF
